:020000020000FC
:0200000029C015
:020004003FC0FB
:020008004BC0EB
:100054000FE50DBF04E00EBF05D07894000000004A
:100064000000FCCF002701BB929A939A0FEF0ABBC2
:1000740000270BBB33270DE005BF00EC0BBF089531
:100084000F930FB70F9318D00AB700740ABF3395B4
:10009400032F0BBB0F910FBF0F9118950F930FB741
:1000A4000F930AD00AB700780ABF3A95032F0BBB07
:1000B4000F910FBF0F9118950FEF1FEF2AE02A95AC
:0C00C400F1F71A95D9F70A95C1F70895D5
:00000001FF
