:020000020000FC
:0200000029C015
:0200040048C0F2
:0200080054C0E2
:100054000FE50DBF04E00EBF0DD078948499FECF58
:100064000BB7102F07FD107407FF10681BBF849B8C
:10007400FECFF4CF002701BB929A939A949A0FEF84
:100084000ABB00270BBB33270EE005BF00EC0BBFF8
:1000940008950F930FB70F9318D00AB700740ABFCF
:1000A4003395032F0BBB0F910FBF0F9118950F932F
:1000B4000FB70F930AD00AB700780ABF3A95032FF7
:1000C4000BBB0F910FBF0F9118950FEF1FEF2AE095
:0E00D4002A95F1F71A95D9F70A95C1F7089504
:00000001FF
